{
  "_format": "hh-sol-artifact-1",
  "contractName": "FHEFashionPoll",
  "sourceName": "contracts/FHEFashionPoll.sol",
  "abi": [
    {
      "anonymous": false,
      "inputs": [
        {
          "indexed": true,
          "internalType": "address",
          "name": "voter",
          "type": "address"
        }
      ],
      "name": "Voted",
      "type": "event"
    },
    {
      "inputs": [],
      "name": "getTallies",
      "outputs": [
        {
          "internalType": "euint64",
          "name": "yes",
          "type": "bytes32"
        },
        {
          "internalType": "euint64",
          "name": "no",
          "type": "bytes32"
        }
      ],
      "stateMutability": "view",
      "type": "function"
    },
    {
      "inputs": [
        {
          "internalType": "address",
          "name": "",
          "type": "address"
        }
      ],
      "name": "hasVoted",
      "outputs": [
        {
          "internalType": "bool",
          "name": "",
          "type": "bool"
        }
      ],
      "stateMutability": "view",
      "type": "function"
    },
    {
      "inputs": [],
      "name": "protocolId",
      "outputs": [
        {
          "internalType": "uint256",
          "name": "",
          "type": "uint256"
        }
      ],
      "stateMutability": "pure",
      "type": "function"
    },
    {
      "inputs": [
        {
          "internalType": "externalEuint8",
          "name": "encChoice",
          "type": "bytes32"
        },
        {
          "internalType": "bytes",
          "name": "attestation",
          "type": "bytes"
        }
      ],
      "name": "vote",
      "outputs": [],
      "stateMutability": "nonpayable",
      "type": "function"
    }
  ],
  "bytecode": "0x608060405234801561000f575f5ffd5b5061018a6100ae604080516080810182525f808252602082018190529181018290526060810191909152506040805160808101825273687820221192c5b662b25367f70076a37bc79b6c815273848b0066793bcc60346da1f49049357399b8d595602082015273a02cda4ca3a71d7c46997716f4283aa851c2881291810191909152731364cbbf2cdf5032c47d8226a6f6fbd2afcdacac606082015290565b80517f9e7b61f58c47dc699ac88507c4f5bb9f121c03808c5676a8078fe583e464970080546001600160a01b03199081166001600160a01b039384161790915560208301517f9e7b61f58c47dc699ac88507c4f5bb9f121c03808c5676a8078fe583e46497018054831691841691909117905560408301517f9e7b61f58c47dc699ac88507c4f5bb9f121c03808c5676a8078fe583e46497028054831691841691909117905560608301517f9e7b61f58c47dc699ac88507c4f5bb9f121c03808c5676a8078fe583e46497038054909216921691909117905550565b610838806101975f395ff3fe608060405234801561000f575f5ffd5b506004361061004a575f3560e01c806309eef43e1461004e5780638e1c690a14610085578063da1f12ab1461009f578063fffeba4e146100af575b5f5ffd5b61007061005c3660046106f2565b60026020525f908152604090205460ff1681565b60405190151581526020015b60405180910390f35b5f546001546040805192835260208301919091520161007c565b604051612711815260200161007c565b6100c26100bd366004610718565b6100c4565b005b335f9081526002602052604090205460ff16156101275760405162461bcd60e51b815260206004820152600d60248201527f416c726561647920766f74656400000000000000000000000000000000000000604482015260640160405180910390fd5b5f6101678484848080601f0160208091040260200160405190810160405280939291908181526020018383808284375f9201919091525061021592505050565b90505f61017d826101786001610229565b61023e565b90506101a55f546101a083610192600161026c565b61019b5f61026c565b610282565b610296565b5f819055506101c76001546101a0836101bd5f61026c565b61019b600161026c565b6001908155335f81815260026020526040808220805460ff1916909417909355915190917f16a9aa39af49f169911e977347975198c503525f7240d6892a626f0227642fce91a25050505050565b5f610222838360026102c4565b9392505050565b5f6102388260ff1660026103e4565b92915050565b5f826102505761024d5f610229565b92505b816102615761025e5f610229565b91505b61022283835f610499565b5f6102388267ffffffffffffffff1660056103e4565b5f61028e848484610594565b949350505050565b5f826102a8576102a55f61026c565b92505b816102b9576102b65f61026c565b91505b61022283835f61063d565b7f9e7b61f58c47dc699ac88507c4f5bb9f121c03808c5676a8078fe583e46497015460405163196d0b9b60e01b81525f917f9e7b61f58c47dc699ac88507c4f5bb9f121c03808c5676a8078fe583e4649700916001600160a01b039091169063196d0b9b9061033d9088903390899089906004016107af565b6020604051808303815f875af1158015610359573d5f5f3e3d5ffd5b505050506040513d601f19601f8201168201806040525081019061037d9190610800565b8154604051630f8e573b60e21b8152600481018390523360248201529193506001600160a01b031690633e395cec906044015f604051808303815f87803b1580156103c6575f5ffd5b505af11580156103d8573d5f5f3e3d5ffd5b50505050509392505050565b7f9e7b61f58c47dc699ac88507c4f5bb9f121c03808c5676a8078fe583e464970154604051639cd07acb60e01b81525f917f9e7b61f58c47dc699ac88507c4f5bb9f121c03808c5676a8078fe583e4649700916001600160a01b0390911690639cd07acb906104599087908790600401610817565b6020604051808303815f875af1158015610475573d5f5f3e3d5ffd5b505050506040513d601f19601f8201168201806040525081019061028e9190610800565b5f5f82156104ac5750600160f81b6104af565b505f5b7f9e7b61f58c47dc699ac88507c4f5bb9f121c03808c5676a8078fe583e46497015460405163f77f3f1d60e01b815260048101879052602481018690527fff00000000000000000000000000000000000000000000000000000000000000831660448201527f9e7b61f58c47dc699ac88507c4f5bb9f121c03808c5676a8078fe583e4649700916001600160a01b03169063f77f3f1d906064015b6020604051808303815f875af1158015610566573d5f5f3e3d5ffd5b505050506040513d601f19601f8201168201806040525081019061058a9190610800565b9695505050505050565b5f807f9e7b61f58c47dc699ac88507c4f5bb9f121c03808c5676a8078fe583e46497006001810154604051637702dcff60e01b81526004810188905260248101879052604481018690529192506001600160a01b031690637702dcff906064016020604051808303815f875af1158015610610573d5f5f3e3d5ffd5b505050506040513d601f19601f820116820180604052508101906106349190610800565b95945050505050565b5f5f82156106505750600160f81b610653565b505f5b7f9e7b61f58c47dc699ac88507c4f5bb9f121c03808c5676a8078fe583e46497015460405163022f65e760e31b815260048101879052602481018690527fff00000000000000000000000000000000000000000000000000000000000000831660448201527f9e7b61f58c47dc699ac88507c4f5bb9f121c03808c5676a8078fe583e4649700916001600160a01b03169063117b2f389060640161054a565b5f60208284031215610702575f5ffd5b81356001600160a01b0381168114610222575f5ffd5b5f5f5f6040848603121561072a575f5ffd5b83359250602084013567ffffffffffffffff811115610747575f5ffd5b8401601f81018613610757575f5ffd5b803567ffffffffffffffff81111561076d575f5ffd5b86602082840101111561077e575f5ffd5b939660209190910195509293505050565b605481106107ab57634e487b7160e01b5f52602160045260245ffd5b9052565b8481526001600160a01b0384166020820152608060408201525f8351806080840152806020860160a085015e5f60a0828501015260a0601f19601f830116840101915050610634606083018461078f565b5f60208284031215610810575f5ffd5b5051919050565b82815260408101610222602083018461078f56fea164736f6c634300081b000a",
  "linkReferences": {},
  "deployedLinkReferences": {}
}